:020000040800F2
:100000002810002039020008A7150008BD140008B8
:10001000A51500081B050008E31B000800000000F0
:10002000000000000000000000000000E5160008CD
:100030004505000800000000D51500084F1900080C
:10004000530200085302000853020008530200083C
:100050005302000853020008470500085302000835
:10006000530200085302000853020008530200081C
:10007000530200085302000853020008530200080C
:100080005302000853020008530200080000000059
:100090000000000000000000000000005302000803
:1000A00053020008530200085302000853020008DC
:1000B00053020008530200085302000853020008CC
:1000C00053020008530200085302000853020008BC
:1000D0005302000853020008530200080000000009
:1000E00053020008530200085302000800000000F9
:1000F00000000000000000000000000053020008A3
:1001000000000000530200085302000853020008D8
:1001100000000000000000000000000000000000DF
:10012000530200085302000853020008530200085B
:100130005302000800000000000000000000000062
:100140000000000000000000000000005302000852
:10015000530200085302000853020008530200082B
:1001600053020008530200080000000000000000D5
:10017000000000000000000000000000000000007F
:100180000000000053020008000000000000000012
:10019000530200085302000800F002F800F03CF897
:1001A0000AA090E8000C82448344AAF10107DA45D2
:1001B00001D100F031F8AFF2090EBAE80F0013F0E8
:1001C000010F18BFFB1A43F001031847841C0000FD
:1001D000A41C0000103A24BF78C878C1FAD852078E
:1001E00024BF30C830C144BF04680C6070470000B1
:1001F0000023002400250026103A28BF78C1FBD830
:10020000520728BF30C148BF0B6070471FB501F0CF
:100210000EFE1FBD10B510BD00F046F91146FFF7E8
:10022000F5FF01F0F9FD00F064F903B4FFF7F2FF08
:1002300003BC00F06BF900000948804709480047FB
:10024000FEE7FEE7FEE7FEE7FEE7FEE7FEE7FEE786
:10025000FEE7FEE704480549054A064B70470000E3
:10026000E519000899010008280A0020281000203C
:10027000280C0020280C002053EA020C00F06980B2
:100280002DE9F04B4FF00006002B1FBFB3FA83F5AA
:1002900003FA05F424FA05F65E4012BF1643B2FADB
:1002A00082F502FA05F4C5F120051EBF22FA05FC0D
:1002B00044EA0C04203556EA044C4FEA144418BFB3
:1002C000641C4FF000084FF00009904271EB030CE2
:1002D00039D3002919BFB1FA81F701FA07F6B0FA4C
:1002E00080F700FA07F6C7F120071EBF20FA07FCC7
:1002F00046EA0C062037B6FBF4FCA7EB0507103FD7
:1003000007F01F0BCBF120060CFA0BFB2CFA06F6BC
:1003100044BFB3460026202FA4BF5E464FF0000B1B
:100320005BEA060C08BF4FF0010B19EB0B09ABFBA6
:10033000027C48EB0608C01B06FB02CC0BFB03CC7F
:1003400071EB0C01C1E70B46024641464846BDE849
:10035000F08B13B54FF000004FF00001AFF30080B9
:10036000BDE81C407047032A40F2308010F0030CB7
:1003700000F0158011F8013BBCF1020F624498BFF8
:1003800011F801CB00F8013B38BF11F8013BA2F195
:10039000040298BF00F801CB38BF00F8013B11F010
:1003A000030300F04F80083AC0F0088051F8043B86
:1003B000083A51F804CBA0E80810F5E7121D5CBF1D
:1003C00051F8043B40F8043BAFF30080D20724BF50
:1003D00011F8013B11F801CB48BF11F8012B24BFE4
:1003E00000F8013B00F801CB48BF00F8012B704733
:1003F0004FF0000200B5134694469646203922BFBE
:10040000A0E80C50A0E80C50B1F12001BFF4F7AF08
:10041000090728BFA0E80C5048BF0CC05DF804EBEA
:10042000890028BF40F8042B08BF704748BF20F858
:10043000022B11F0804F18BF00F8012B7047704756
:100440007047704710B5203AC0F00B80B1E81850E3
:10045000203AA0E81850B1E81850A0E81850BFF4AE
:10046000F5AF5FEA027C24BFB1E81850A0E818504D
:1004700044BF18C918C0BDE810405FEA827C24BFA1
:1004800051F8043B40F8043B08BF7047D20728BF2F
:1004900031F8023B48BF11F8012B28BF20F8023B7E
:1004A00048BF00F8012B7047754600F02BF8AE46A8
:1004B00005006946534620F00700854618B020B570
:1004C000FFF7C8FEBDE820404FF000064FF00007E0
:1004D0004FF000084FF0000B21F00701AC46ACE8EC
:1004E000C009ACE8C009ACE8C009ACE8C0098D4659
:1004F000704710B50446AFF300802046BDE81040B9
:10050000FFF793BE00487047C80900200149182032
:10051000ABBEFEE7260002007047FEE730B504469A
:100520000020651804E000BF14F8011B01F049FB2E
:10053000AC42F9D3002101F044FBBDE8304000217A
:1005400001F03FBB7047012000F056BA72B6FEE7DB
:10055000002229B101291AD002291BD04FF4407280
:100560000E490B6823F440730B600B6813430B6058
:100570000A6822F0F8020A600A68022303EBC0004E
:1005800002430A60086840F48030086070474FF406
:100590008072E5E74FF40072E2E70000103C024091
:1005A0001348016889050FD5016821F400710160C5
:1005B000016841F400610160016821F4006101609B
:1005C000016841F400710160016849050FD50168B7
:1005D00021F480610160016841F48051016001688B
:1005E00021F480510160016841F48061016070472D
:1005F000003C02402DE9F047164689460546002496
:1006000000F0E2F92249086820F480600860086878
:1006100020F400700860086840F4805008600868A2
:1006200020F480500860086840F4006008600868A2
:1006300020F400600860086840F4007008600868F2
:1006400040F480600860DFF84C80134F16E02968A2
:10065000C8F82090C8F8101059F824200023022070
:10066000C8F81C2000F072F920B100F065F90120F3
:10067000BDE8F0872868001D2860641CB44202D2DF
:100680002868B842E3D900F057F90020F0E70000ED
:10069000003C024000000020FBFF000808490A68F7
:1006A00022F440720A600A6842F004020A600A6892
:1006B0004FF4803343EA002002430A607047000091
:1006C000103C0240064A136823F440731360136819
:1006D0001360136843F0010313600170704700005A
:1006E000103C0240094910B50C6824F440740C60B9
:1006F0000C6844F440740C600C6844F001040C6015
:100700000260BFF36F8F436010BD0000103C0240D9
:10071000074A136823F440731360136843F480732B
:100720001360136843F001031360018070470000F9
:10073000103C0240074A136823F4407313601368A7
:1007400043F400731360136843F001031360016006
:1007500070470000103C02401C490868C2061C4853
:1007600005D5C26942F01002C26110220A600A680F
:10077000920605D5C26942F00802C26120220A60D1
:100780000A68520605D5C26942F00402C2614022DD
:100790000A600A68120605D5C26942F00202C26107
:1007A00080220A600A68D20506D5C26942F00102B9
:1007B000C2614FF480720A600A68920705D5C26967
:1007C00042F02002C2610220086070470C3C0240E7
:1007D000A809002070B5114904460020C86100F046
:1007E00007FA06460E4D09E0601C07D024B100F060
:1007F000FFF9801BA04201D9032070BD2868C00307
:10080000F2D42868C00701D001202860286810F4BD
:10081000F970F2D0FFF7A0FF012070BDA8090020F9
:100820000C3C024001460020A1F100634FF48042DD
:10083000934204D30D480844904201D201207047EE
:100840000B480844904201D20220704709480844EE
:10085000904201D20320704707480844B0F5803F1A
:1008600001D20420704705207047000000C0FFF748
:100870000080FFF70040FFF70000FFF770B5044667
:1008800000F0B6F90546601C02D004480078044424
:1008900000F0AEF9401BA042FAD370BD2800002042
:1008A0002DE9F047044622480F46017E01290AD06F
:1008B0000121804601764CF250394846FFF78AFF05
:1008C000020003D02FE00220BDE8F0874FF0FF3098
:1008D00038602068174D012801D0A6681CE0207CF4
:1008E0006168FFF7DBFE4846FFF774FF02462868A1
:1008F00020F00400286014E0217C3046FFF728FE39
:100900004846FFF767FF0200286820F0FA002860D9
:1009100001D03E6005E0761CD4E902100844B042E4
:10092000EAD8FFF73DFE002188F818101046CBE703
:10093000A8090020103C02400348016841F0004132
:100940000160002070470000103C02402DE9F04794
:100950001B4E05461446307E1F468946012808D0A6
:10096000012030764CF250384046FFF733FF18B183
:1009700014E00220BDE8F0879DB1012D16D0022DB4
:1009800019D022463B464846FFF7ACFE4046FFF7EB
:1009900021FF0C490A6822F001020A600021317629
:1009A000E8E7E1B24846FFF78DFEEFE7A1B248461F
:1009B000FFF7AEFEEAE721464846FFF7BBFEE5E754
:1009C000A8090020103C0240074900200A68002ABC
:1009D00009DA054A054B0C3A1360054B13600968A8
:1009E000002900DA01207047103C024023016745CE
:1009F000AB89EFCD70470000044910B50A68024288
:100A000002D00860FFF7F6FF10BD0000143C014063
:100A10002DE9F84FDFF8B8A10022012403254FF09B
:100A20000F090AF1040BAAF1040E00BF0B6804FAC7
:100A300002F63340B34273D10F7907F00307012F59
:100A400001D0022F16D187684FEA420805FA08FC48
:100A500027EA0C07D1F80CC00CFA08FC4CEA070C8A
:100A6000C0F808C04768B7430E79C6F30016964031
:100A70003E4346600E79F643B6070DD0C768560070
:100A800005FA06FC27EA0C07D1F808C00CFA06FCA8
:100A90004CEA070CC0F80CC00E7906F00306022ED3
:100AA00010D1D60800EB8608D8F8206057074FEA27
:100AB000D76C09FA0CF7BE430F6907FA0CF73743F6
:100AC000C8F8207006684FEA420C05FA0CF7BE43DE
:100AD0000F7907F0030707FA0CF7374307604E68F2
:100AE00016F4403F6DD03B4E376847F4804737607F
:100AF000366822F0030706F480460096364E07EB70
:100B0000060CDCF8086897073F0F09FA07F826EA91
:100B10000806DFF8C880404503D14FF000081EE00A
:100B20004FE0DFF8BC80404502D14FF0010816E0ED
:100B3000DFF8B080404502D14FF002080FE0DFF847
:100B4000A880404502D14FF0030808E0DFF89C8000
:100B5000404502D14FF0040801E04FF0070808FAC1
:100B600007F848EA0608CCF80888DAF80060574623
:100B7000D1F804C09E435FEACC2C00D51E433E60F2
:100B8000DBF800605F46D1F804C09E435FEA8C2C1E
:100B900000D51E433E60DEF800607746D1F804C001
:100BA0009E435FEA8C3C00D51E433E60084F083FE1
:100BB0003E68D1F804C09E435FEACC3C00D51E439A
:100BC0003E60521C102AFFF431AFBDE8F88F0000E0
:100BD000083C01404438024000300140000002401F
:100BE0000004024000080240000C024000100240D5
:100BF0000148806870470000280000200248816892
:100C00000278114481607047280000200B4810B51D
:100C1000016841F400710160016841F48061016084
:100C2000016841F480710160032000F06FF80F202B
:100C300000F006F800F024F8002010BD003C02404F
:100C400070B50D4D04464FF47A712878B1FBF0F081
:100C50000A490968B1FBF0F000F00CFB48B9102C10
:100C600007D200222146501E00F030F800206C60B0
:100C700070BD012070BD000028000020240000206D
:100C80000A4808B5016841F480410160006800F439
:100C9000804000900548001F016841F080510160CC
:100CA000006800F08050009008BD00004438024009
:100CB000002809DB00F01F0201219140400980005B
:100CC00000F1E020C0F8001170470000F0B40E4BB6
:100CD0001B680C46C3F30223C3F10705042D00D99A
:100CE0000425191D072901D2002300E0DB1E01267F
:100CF00006FA05F1491E214099409E40761E164095
:100D00003143F0BC01F052B80CED00E0064900F0B0
:100D1000070208684FF6FF03184040EA0220034A22
:100D200010430860704700000CED00E00000FA0579
:100D30002DE9F0470E46050065D0DFF81481D8F89C
:100D40000000F7B200F00700B04207D288F8007048
:100D5000D8F8000000F00700B04254D128683D4C9C
:100D6000810712D5400703D5206840F4E050206089
:100D70002878000703D5206840F460402060206890
:100D8000A96820F0F000084320602878C0072DD023
:100D9000304968680839012812D0022813D0032886
:100DA00011D00968890700292DDA216821F0030193
:100DB00001432160FFF71CFF814641F2883A0EE0B3
:100DC00009688903EFE709688901ECE7FFF710FF7D
:100DD000A0EB0901514502D90320BDE8F087206846
:100DE000696800F00C00B0EB810FEFD1D8F800106B
:100DF000404601F00701B14207D90770006800F0D2
:100E00000700B04201D00120E7E72878400705D568
:100E10002068E96820F4E050084320602878000743
:100E200006D52068296920F4604040EAC1002060AE
:100E300000F038F82168084AC1F30311515CC8403A
:100E40000649086006480068FFF7FAFE0020C4E77C
:100E5000003C024008380240381E000824000020F0
:100E60002C0000200448054900680968044AC1F3C1
:100E70008221515CC840704724000020083802409D
:100E8000481E00080448054900680968044AC1F37F
:100E90004231515CC84070472400002008380240AD
:100EA000481E0008154810B5006810F00C021448E0
:100EB00013D01449042A0FD0082A0ED10F4C241F36
:100EC0002268236802F03F025B0207D52068C0F366
:100ED0008810A0FB010106E0084610BD2168C1F39F
:100EE0008811A1FB00010023FFF7C6F92168C1F3B7
:100EF0000141491C4900B0FBF1F010BD0838024027
:100F00000024F40040787D012DE9F84F04006ED0F4
:100F10002078DFF84C93C007A9F104054AD009F105
:100F200004000168C1F38101012908D00068C0F301
:100F3000810002280AD1D9F80000400206D52868AD
:100F4000800337D560680028E1D033E06068B0F5F1
:100F5000803F10D0B0F5A02F286810D020F480304A
:100F60002860286820F4802028606068A8B1FFF716
:100F70003FFE06460DE0286840F48030F4E740F478
:100F800080202860F7E700BFFFF732FE801B64284F
:100F900073D828688003F7D50CE0FFF729FE0646D2
:100FA00005E000BFFFF724FE801B6428F0D8286806
:100FB0008003F7D42078DFF8AC8280074FF0000A76
:100FC0003ED5A748001D016811F00C0F08D000683D
:100FD000C0F3810002280BD1D9F80000400207D4E9
:100FE0002868800716D5E068012800D112E033E1B7
:100FF000E068B8B10120C8F80000FFF7F9FD064627
:1010000005E000BFFFF7F4FD801B0228C0D8286868
:101010008007F7D52868216920F0F80040EAC10070
:1010200028600DE0C8F800A0FFF7E2FD064604E0E6
:10103000FFF7DEFD801B02281FD828688007F7D441
:101040002078000722D5864F87486169703771B1D3
:1010500001210160FFF7CCFD064604E0FFF7C8FD63
:10106000801B022809D838688007F7D50EE0C0F841
:1010700000A0FFF7BDFD064605E082E0FFF7B8FDE2
:10108000801B02287DD838688007F7D42078400775
:1010900068D5DFF8CCB100270BF13C0BDBF8000082
:1010A000C0000BD4DBF8001041F08051CBF80010E9
:1010B000DBF80000012700F0805000906B4E306894
:1010C000C00510D4306840F480703060FFF790FDA8
:1010D000009005E0FFF78CFD0099401A022850D8D7
:1010E0003068C005F6D55E4EA0686C3601280FD07A
:1010F0000528306810D020F001003060306820F002
:1011000004003060A068B8B1FFF772FD00900FE0F6
:10111000306840F00100F4E740F004003060F7E789
:10112000FFF766FD0099411A41F28830814266D886
:1011300030688007F4D50EE0FFF75AFD009007E015
:10114000FFF756FD0099411A41F28830814256D886
:1011500030688007F4D42FB1DBF8001021F0805103
:10116000CBF80010A069C8B33D49091D0968C1F357
:10117000810102294AD00228504607D0C8F86000F1
:1011800000E03CE0FFF734FD04463BE04746C8F88A
:101190006000FFF72DFD064605E000BFFFF728FDC4
:1011A000801B02282BD828688001F7D4D4E90701D6
:1011B0000843A16A2E4A490802EB0141626A41EAEA
:1011C0008211084394F82C1040EA0161C9F800101C
:1011D00001203866FFF70CFD044606E03EE000BF44
:1011E000FFF706FD001B022809D828688001F7D503
:1011F00034E000BFFFF7FCFC001B022802D90320EB
:10120000BDE8F88F28688001F4D427E00128F7D0E2
:10121000D9F80000E26900F4800191421CD1226AF1
:1012200000F03F01914217D147F6C071626A014058
:10123000B1EB821F10D1A26A4FF0FF3300F44031AE
:1012400003EB5202B1EB024F06D194F82C1000F0E0
:101250007060B0EB016F01D00120D1E70020CFE733
:101260000438024000004742800E474200700040B0
:101270000000FFFF10B5401EB0F1807F01D30120B8
:1012800010BD4FF0E02460610F21601700F08EFD6B
:101290000020A06107202061002010BD70B504006F
:1012A00004D094F84100002510B106E0012070BD83
:1012B00084F84050204600F023F8242084F84100B0
:1012C0002068C16821F40051C160204600F0BAFBDB
:1012D0002068016921F4904101612068416921F091
:1012E0002A0141612068C16841F40051C160656410
:1012F000202084F8410084F842006563002070BD1E
:1013000010B586B0044614216846FFF771F81449F9
:101310002068884221D113480021026842F010025F
:101320000260006800F0100005900E481438026852
:1013300042F001020260006800F0010005904FF4E5
:10134000C06000900220CDE9010103200390072036
:10135000049069460448FFF75BFB06B010BD00002F
:101360000010014044380240000002402DE9F84FCF
:10137000044690F842009A4616460D46202802D0B0
:101380000220BDE8F88FB5B1AEB100206064222123
:1013900084F842102063FFF72BFCA6858146E68582
:1013A000A0684FF480582027404501D1206920B122
:1013B0002E46002529E00120E3E7002625E04B46E4
:1013C000002220212046CDF800A000F0C1FB18B17A
:1013D00084F842700320D4E726B1A06840451AD0B3
:1013E00038B108E020684068C0F3080025F8020B17
:1013F00008E0206978B12068406800F07F0000BFF5
:1014000006F8010BE08D401EE085E08D0028D6D166
:1014100084F84270B5E720684068F1E72DE9F843A9
:10142000044690F84100984616460D46202802D002
:101430000220BDE8F88385B17EB1002060642120E0
:1014400084F84100FFF7D4FBA6848146E684A068B7
:101450002027B0F5805F02D003E00120E9E7206992
:1014600010B12E4600250EE000260CE0802120461B
:1014700000F06EFBA8B9C6B116F8010B21684860F0
:10148000E08C401EE084E08C4B464FF00002CDF82B
:1014900000800028EAD14FF04001204600F058FBC0
:1014A00040B184F841700320C3E735F8020BC0F364
:1014B0000800E3E784F841700020BAE7FEE7000087
:1014C00000B587B014216846FEF792FF1248016804
:1014D00041F080010160016801F08001059101681F
:1014E00041F00101016000684FF4041100F00100B7
:1014F00005900120CDE90001029069460748FFF7F9
:1015000087FA002211460620FFF7E0FB0620FFF7CE
:10151000CFFB07B000BD00003038024000000240A1
:101520000C4810B50A4901604FF4E13141600021D7
:1015300081600C22C160C0E904128161C161FFF7C2
:10154000ADFE002803D0BDE81040FEF7FFBF10BD80
:10155000001001406009002003A000F08FF900BFD7
:1015600000F0C2F8FCE700000D0A202053544D3370
:10157000324634303720496E2D4170706C6963619A
:1015800074696F6E2050726F6772616D6D696E67FE
:10159000204170706C69636174696F6E20200D0A60
:1015A00000000000FEE7FEE700204FF0E021421EB1
:1015B000C1F880211309C1F88431C1F88022C1F833
:1015C0008432014600F1E02282F80014401C0F280A
:1015D000F8D37047704700000B48016841F00101E3
:1015E0000160094A0021083211600268074B1A4065
:1015F0000260031D064A1A60026822F4802202601B
:1016000001480C300160704700380240FFFFF6FED1
:101610001030002470B50C46054604E0284600F062
:101620000FF9012804D0641EF8D24FF0FF3070BDCE
:10163000002070BD2DE9F84F884600210546C8F806
:101640000010924611466846FFF7E4FF4FF0FF395D
:10165000F0BB9DF80000182814D006DC012809D042
:10166000022809D0042837D13AE0412816D0612851
:1016700032D113E0802401E04FF480640126287009
:10168000671D15E051466846FFF7C4FF00BB9DF893
:101690000000182820D1C8F8009021E00120BDE802
:1016A000F88FA8195146FFF7B5FF88B9761CB6B276
:1016B000BE42F6D3A978687881F0FF0188420BD149
:1016C0002146E81CFEF72AFF2919B1F8031000E0B3
:1016D00002E049BA814201D04846E0E7C8F800403C
:1016E0000020DCE77047000010B5184800F07AFAD7
:1016F00000281ADD16A000F0C1F80A20FFF7BEF896
:101700001EA000F0BBF8012080F31088FFF764FFF3
:10171000FFF74AFF23494868234A906150610968EE
:1017200081F30888BDE810400047411C08D0811CA7
:1017300008D0C01C08D01DA0BDE8104000F09EB825
:1017400022A0F9E731A0F7E737A0F5E73400002041
:101750000D0A2050726F6772616D6D696E6720436C
:101760006F6D706C65746564205375636365737326
:1017700066756C6C79210D0A200000002D2D2D2D31
:101780002D2D2D2D2D2D4A756D7020546F204170FB
:10179000702D2D2D2D2D2D2D2D2D2D2D2D2D0D0A79
:1017A0000000000000500008000000200A0D466103
:1017B000696C656420746F20726563656976652065
:1017C0007468652066696C65210A0D000A0A0D546B
:1017D000686520696D6167652073697A6520697342
:1017E00020686967686572207468616E2074686536
:1017F00020616C6C6F776564207370616365206D28
:10180000656D6F7279210A0D000000000A0A0D56FD
:101810006572696669636174696F6E206661696C7F
:101820006564210A0D0000000D0A0A41626F72749E
:10183000656420627920757365722E0A0D000000C0
:10184000084910B509680968C943890607D50146E2
:10185000642301220348FFF789FD012010BD002009
:1018600010BD00006009002001B50A23012269466D
:101870000148FFF7D3FD08BD6009002010B50446FC
:1018800003E000BFFFF7F0FF641C20780028F9D1C7
:1018900010BD70B5002204781346302C04D1447872
:1018A000782C0AD0582C08D06FF02F05845C74B3C4
:1018B0006B2C2ED04B2C2CD030E082780AB3022433
:1018C000025D5AB1A2F14105052D0AD9A2F16106C6
:1018D000052E06D91135092D07D913E001200B601B
:1018E00011E0A2F13006092E01D8303A04E0052DAE
:1018F00001D8373A00E0573A641C02EB03130B2C73
:10190000DED302E000200B2C00D3002070BD0B6062
:1019100002E01AB1980207E0012015E06D2C01D019
:101920004D2C03D112B118050860F5E7A4F130067B
:10193000092E08D803EB830305EB4303521C234411
:101940000B2AB3D3E1E700200B2ADED270BDFFF7EC
:1019500055B9000030B593B030216846FEF748FD18
:1019600014210CA8FEF744FD1C480024016841F036
:1019700080510160006800F08050119018480168A3
:1019800041F4404101600068022500F4404011909C
:101990000120039010200490009506950820CDE9C1
:1019A00007406420CDE9090504200B906846FFF745
:1019B000ABFA08B172B6FEE70F20CDE90C054FF483
:1019C0008050CDE90E4003210CA81094FFF7B0F928
:1019D000002801D072B6FEE713B030BD4038024097
:1019E000007000400248016841F4700101607047D6
:1019F00088ED00E001680C3151E8002F22F490726C
:101A000041E80023002BF5D10168143151E8002F83
:101A100022F0010241E80023002BF5D1016B0129DE
:101A200009D101680C3151E8002F22F0100241E881
:101A30000023002BF5D1202180F842100021016302
:101A40007047000070B5044600680169E26821F43F
:101A50004051114301612169A068E269084361694D
:101A6000114308432168CA6849F20C639A43024350
:101A7000CA6020684169A26921F440711143416143
:101A800031492068884202D03049884202D1FFF7AC
:101A9000F9F901E0FFF7E6F9E2690023192164256D
:101AA0003226B2F5004F626828D0A0FB0101930FE7
:101AB0009200FEF7E1FB0146B0FBF5F06FF0180273
:101AC000504301EB800006EB0010B0FBF5F000F096
:101AD000F002B1FBF5F002EB0012B1FBF5F06FF094
:101AE0001803584301EB800006EB0010B0FBF5F043
:101AF00000F00F0021681044886070BDA0FB010158
:101B000092185B41FEF7B8FB0146B0FBF5F002010D
:101B1000B1FBF5F06FF01803584301EB800006EBC2
:101B2000C000B0FBF5F000F0F80002EB4002B1FBA2
:101B3000F5F0584301EB800006EBC000B0FBF5F078
:101B400000F00700D6E7000000100140001401403B
:101B50002DE9F843984617460D460446089E24E0B2
:101B6000701C22D0FFF744F8A0EB0800B0421AD84E
:101B7000CEB12068C168490717D5802D15D0402DFA
:101B800013D00168C94309070FD4016800254068D4
:101B900000902046FFF72EFF0820606484F8405034
:101BA0000120BDE8F8830320FBE72068006835EAE0
:101BB000000004D00020B842D2D00020F1E701207C
:101BC000F9E741F4807141F2210240004900CB0560
:101BD00000D5401CC30300D55040CB03F5D580B2DF
:101BE0007047FEE72DE9FF5F4FF0000BDFF88091B3
:101BF000CDE9029B04465D46CDF800B0D8464FF4CF
:101C000080174FF0FF3A00263A4601A95948FFF7DE
:101C100011FD68B301287DD0B8F1000F00DD6D1C07
:101C200055480188491C89B20180322913D353A039
:101C3000FFF724FE012080F31088FFF7CDFCFFF7AB
:101C4000B3FCD9F804004C4A90615061D9F80010F7
:101C500081F308888047052D70DD1820FFF704FE0A
:101C60005FF01800FFF700FE002004B0BDE8F09F11
:101C7000019A0025524507D042B13E49F3B2487857
:101C800098420AD0152070E00620EBE70620FFF707
:101C9000EBFD03980028B6D054E0BEB12046C91C25
:101CA000FEF761FB344A2146A2F800B00198C0F368
:101CB0008D0202A8FEF79EFC68B31820FFF7D4FD42
:101CC0001820FFF7D1FD6FF00100CEE7C878A0B370
:101CD0000020344AC91C02E01354401C491C0B78F4
:101CE0000BB1FF28F8DD02F800B000202E4A01E019
:101CF0001354401C11F8013F202B01D00F28F7DBB3
:101D000002F800B069462848FFF7C3FD4BF2010115
:101D1000009801E01FE017E0884207D91820FFF77C
:101D2000A3FD1820FFF7A0FD50469EE700F04EF8F7
:101D30000620FFF799FD432007E000E014E00620AD
:101D4000FFF792FD009890E70620FFF78DFD4FF01A
:101D50000108761C58E71820FFF786FD1820FFF7CA
:101D600083FD6FF0020080E74320FFF77DFD4BE726
:101D70000050000848050020000000202D2D2D2DCA
:101D80002D2D2D2D2D2D4A756D7020546F204170F5
:101D9000702D2D2D2D2D2D2D2D2D2D2D2D2D0D0A73
:101DA00000000000480400204D0900200907090E2A
:101DB000002804DB00F1E02080F80014704700F0F8
:101DC0000F0000F1E02080F8141D704710B5FEF7F9
:101DD000FBFD0D48FEF726FD0C4C60600C48FEF73D
:101DE00021FD62680023811A0A48491CA160036032
:101DF00002230361C0E9022104F10C01FEF750FD4A
:101E0000BDE81040FEF798BD00400008000000202B
:101E10000080000834040020FEF7F8FEFFF79AFD6A
:101E2000FFF74EFBFFF77CFBFFF796FBFCE74FF05D
:101E30004070E1EE100A7047000000000000000052
:101E40000102030406070809000000000102030460
:101E5000701E00080000002034000000D4010008BB
:101E6000A41E000834000020F40F0000F001000858
:101E70000000000000000000000000000000000062
:101E8000004000080000000000000000000000000A
:101E9000000000000024F400010000001000000019
:041EA000000000003E
:040000050800019955
:00000001FF
